:1000000009C021C020C004C11EC01DC01CC01BC02F
:100010001AC019C011241FBECFE9CDBF10E0A0E661
:10002000B0E0ECEDF3E002C005900D92A236B1070E
:10003000D9F720E0A2E6B0E001C01D92AF36B207CA
:10004000E1F7A4D1C9C1DCCF0F931F93CF93DF9306
:10005000D82F8B01C0E0CD1761F060E084E07CD147
:10006000C8010DD161E084E077D1C80108D1CF5F2C
:10007000F2CFDF91CF911F910F9108951F93CF93EE
:10008000DF93182F811103C0C0E0D4E002C0C0E0AC
:10009000D0E0112361F0C11584E0D80791F06C2FF6
:1000A00083E015D182E090E0EAD02196F2CF20974C
:1000B00041F06C2F83E00BD182E090E0E0D02197FB
:1000C000F6CFDF91CF911F910895CF93DF93C0E0DA
:1000D000D4E06C2F84E0FBD081E090E0D0D0219779
:1000E000C1F7C0E0D0E06C2F84E0F1D081E090E077
:1000F000C6D02196C11584E0D807A9F7DF91CF912A
:10010000089560E082E002D161E083E0FFD061E029
:1001100084E0FCD060E083E01FD161E084E01CD18A
:1001200081E0ACDF64EF71E085E08ECF0F931F9329
:10013000CF9382E0BFD020916000C1E0222321F064
:10014000893291402CF003C08B3891400CF4C0E010
:1001500084D06093670070936800809369009093E7
:100160006A00009163001091640020916500309155
:100170006600601771078207930740F410926300CE
:10018000109264001092650010926600CC2371F109
:1001900020916200211108C0609363007093640095
:1001A0008093650090936600009163001091640055
:1001B0002091650030916600005A154121093109EE
:1001C000601771078207930788F09091600081E0C3
:1001D0008927809360001092620050DF8091600058
:1001E000811112C068EE73E085E02EDF809162001D
:1001F000811104C0CF911F910F9167CF84E690E0E9
:10020000CF911F910F913BC064E670E082E3EDCF88
:100210001F920F920FB60F9211248F939F93AF935B
:10022000BF9380916B0090916C00A0916D00B09194
:100230006E000196A11DB11D80936B0090936C0020
:10024000A0936D00B0936E00BF91AF919F918F917D
:100250000F900FBE0F901F901895F89460916B004F
:1002600070916C0080916D0090916E00789425E201
:1002700030E040E050E08ED0CA01B9010895009707
:1002800041F0EFE5F9E03197F1F700C00000019788
:10029000F6CF089583B7816083BF8FB583608FBD2C
:1002A00089B7826089BF12BE789417B886B1876813
:1002B00086B9089597B183709074892B87B9369A5F
:1002C0003699FECF84B125B190E0922B089597B373
:1002D000482F427021E030E001C0220F4A95EAF732
:1002E000292B27BB662319F06F3F11F461E034C05E
:1002F000813029F48FB580628FBD69BD0895811169
:1003000004C08FB580688FBD66BF08958630C0F485
:1003100047B321E030E061110AC0B90102C0660FA5
:10032000771F8A95E2F7CB018095842308C0B90135
:1003300002C0660F771F8A95E2F7CB01842B87BB3B
:100340000895811103C08FB58F7704C0813019F4EF
:100350008FB58F7D8FBD0895CF93DF93863098F44E
:10036000D62FC82F823008F4ECDF28B381E090E06C
:1003700001C0880FCA95EAF7D11103C08095822386
:1003800001C0822B88BBDF91CF91089583DFB9DE56
:10039000CDDEFECFA1E21A2EAA1BBB1BFD010DC0B4
:1003A000AA1FBB1FEE1FFF1FA217B307E407F50725
:1003B00020F0A21BB30BE40BF50B661F771F881F01
:1003C000991F1A9469F760957095809590959B0197
:0C03D000AC01BD01CF010895F894FFCFEF
:0203DC0001001E
:00000001FF
