:100000000C945D000C9485000C9485000C94850084
:100010000C9485000C9485000C9485000C9485004C
:100020000C9485000C9485000C9485000C9485003C
:100030000C9485000C9485000C9485000C9485002C
:100040000C94180A0C9485000C948E090C94680981
:100050000C9485000C9485000C9485000C9485000C
:100060000C9485000C94850000000008000201003B
:100070000003040700000000000000000000000072
:10008000250028002B0000000000240027002A0083
:10009000040404040404040402020202020203032E
:1000A0000303030301020408102040800102040836
:1000B0001020010204081020860B11241FBECFEF70
:1000C000D8E0DEBFCDBF12E0A0E0B1E0E2EBF8E1A6
:1000D00002C005900D92A433B107D9F725E0A4E33F
:1000E000B2E001C01D92A637B207E1F710E0CDE5FE
:1000F000D0E004C02197FE010E944C0CCC35D10702
:10010000C9F70E94E20B0C94570C0C9400008FB7B7
:10011000F894809136028FBF08958EBD00000DB413
:1001200007FEFDCF8EB508958CBD9DBD08953F920D
:100130004F925F926F927F928F929F92AF92BF92F7
:10014000CF92DF92EF92FF920F931F93CF93DF93A3
:10015000CDB7DEB72C970FB6F894DEBF0FBECDBF7C
:100160005C01DC015B968D909C905C971696CD901F
:10017000DD90ED90FC901997C114D104E104F104D5
:1001800039F0BFEFCB1ADB0AEB0AFB0A312C07C0B0
:10019000F401C080D180E280F38033243394F401F1
:1001A00081859285A385B4859C01AD012F5F3F4F6A
:1001B0004F4F5F4F29873A874B875C87260137016E
:1001C0001D821E821F821886F40181859285A38577
:1001D000B4852D813E814F815885281739074A07FC
:1001E0005B0708F063C089859A85AB85BC858C1553
:1001F0009D05AE05BF0550F482E0C82ED12CE12C40
:10020000F12C92E0492E512C612C712C9E012F5F14
:100210003F4FB701A601C4010E94020B882309F4D5
:1002200045C089819A81AB81BC81892B8A2B8B2B1C
:1002300041F0260137019FEF491A590A690A790AE4
:1002400005C0C414D504E604F70491F02D813E8165
:100250004F8158852F5F3F4F4F4F5F4F2D833E8318
:100260004F8358873FEFC31AD30AE30AF30AACCF90
:100270000FEF1FEF2FEF3FE0B301A201C4010E9477
:10028000620A882399F0D50116964D915D916D9182
:100290007C911997411551056105710549F093014C
:1002A0008201C4010E94620A811102C080E02AC05A
:1002B000D50116964D925D926D927C9219973320DE
:1002C00051F0D301C2010196A11DB11DF40180833B
:1002D0009183A283B383F5018789908DA18DB28D1F
:1002E000892B8A2B8B2B69F4D50157964D925D9201
:1002F0006D927C925A9714968C91149780681496FC
:100300008C9381E02C960FB6F894DEBF0FBECDBF64
:10031000DF91CF911F910F91FF90EF90DF90CF90E1
:10032000BF90AF909F908F907F906F905F904F9015
:100330003F900895CF93DF93EC01809135028111B6
:1003400009C081E0809335028091DB049091DC0448
:100350000E94940060E08C81DF91CF910C94C009E1
:1003600061E0FC0184810E94C00980913502811105
:100370001092350208958FEF0C948D000F931F9308
:10038000CF93DF93EC010E940C0A8B010E94BB010A
:100390008A878F3F49F40E940C0A601B710B6D32F3
:1003A0007140A0F38FE003C08E3F39F08DE08D8364
:1003B000CE010E94B00180E001C081E0DF91CF91C9
:1003C0001F910F9108950F931F93CF93DF93EB012C
:1003D0000E940C0A8B010E94BB018F3F49F00E94D2
:1003E0000C0A601B710B6C177D07A8F380E001C03D
:1003F00081E0DF91CF911F910F910895CF93DF930B
:10040000EC018E81882389F08F8198859C012F5F74
:100410003F4F38872F838230924018F40E94BB01EF
:10042000F3CFCE010E94B0011E82DF91CF910895DB
:10043000CF92DF92FF920F931F93CF93DF9300D061
:1004400000D0CDB7DEB76C01F62E29833A834B83FB
:100450005C830E94FE01C6010E949A016CE271E079
:10046000C6010E94E3018F2D80640E948D0008E187
:1004700010E05C814B813A812981DA01C901002EAB
:1004800004C0B695A795979587950A94D2F72983C6
:100490003A834B835C830E948D00085011092981A7
:1004A0003A814B815C81083F8FEF180731F7FF20BD
:1004B00029F0E8E0FE1204C087E803C085E901C026
:1004C0008FEF0E948D0010E00E94BB01F601828731
:1004D00087FF04C01F3F11F01F5FF6CF0F900F90F2
:1004E0000F900F90DF91CF911F910F91FF90DF90B0
:1004F000CF900895EF92FF920F931F93CF93DF93C6
:10050000EC017901411551056105710511F482E194
:100510003CC08B85833039F089E0440F551F661F3E
:10052000771F8A95D1F79A01AB0168E1CE010E944D
:100530001802882311F084E028C08EEF0E948D00FD
:1005400087018EEFF81AF80181918F010E948D00CA
:100550000E151F05C1F78FEF0E948D008FEF0E94CF
:100560008D000E94BB018A878F71853031F081E157
:100570008D83CE010E94B00109C068E572E0CE0112
:100580000E94E301811107C085E18D83CE010E94A5
:10059000B00180E013C020E030E0A9016DE0CE01A1
:1005A0000E941802811104C00E94BB01882311F02F
:1005B00084E1EBCFCE010E94B00181E0DF91CF91C9
:1005C0001F910F91FF90EF900895CF93DF9380914B
:1005D0003902882399F1C0913702D09138024091B5
:1005E00000015091010160910201709103012EE31D
:1005F00032E0CE010E947A02811102C080E01FC069
:1006000040913A0250913B0260913C0270913D0250
:10061000411551056105710579F02EE332E0CE01F7
:100620000E947A02882351F310923A0210923B0200
:1006300010923C0210923D021092390281E0DF914B
:10064000CF910895CF92DF92EF92FF92CF936B01FB
:100650007C01C42F8091000190910101A0910201C1
:10066000B09103018C159D05AE05BF05D1F00E9428
:10067000E502811102C080E01AC02EE332E0B7012A
:10068000A60180913702909138020E94DA088823EF
:1006900091F3C0920001D0920101E0920201F09228
:1006A000030180913902C82BC093390281E0CF91B8
:1006B000FF90EF90DF90CF9008954F925F926F92EE
:1006C0007F928F929F92AF92BF92EF92FF920F9381
:1006D0001F93CF93DF9300D000D01F92CDB7DEB72A
:1006E0008C016D83DC0115968C911597813009F092
:1006F00057C014968C9181FF53C05AC0038CF48D5F
:10070000E02D258530E0275F3F4F2A013B01B1E016
:100710004B1A510861087108022E04C07694679440
:10072000579447940A94D2F7D501C4010197A109BF
:10073000B10904C0B695A795979587952A95D2F7E4
:1007400084159505A605B70508F070C0F80147891E
:10075000508D618D728D46835783608771872C0120
:100760003D017801E6E0EE0EF11CD8014114510480
:100770006104710409F464C016964D915D916D9108
:100780007C91199797015B968D919C915C970E9443
:10079000020BB1E04B1A5108610871088111E5CFD5
:1007A00081E090E0F8019383828380E090E04FC184
:1007B00082FF0EC0F8014285538564857585838864
:1007C0009488A588B688481559056A057B05F1F413
:1007D000D8011A964D915D916D917C911D975B9614
:1007E0008D919C915C97FC0174807A944A015B0125
:1007F00029E0B694A794979487942A95D1F7782006
:100800007A01F1E0FF22772011F164C08114910494
:10081000A104B10409F072CF1682178210861186E6
:10082000F8011286138614861586D2CF452B462BE7
:10083000472B09F48BCF84199509A609B7098FCFE7
:100840001A968D929D92AD92BC921D97C1CFE114E4
:10085000F10409F03FC0F801468157816085718538
:10086000411551056105710549F48789908DA18D68
:10087000B28D0097A105B10541F521C09E012F5F02
:100880003F4F0E94020B882309F48FCF89819A8100
:10089000AB81BC81F801238D348DF901278920318A
:1008A00029F048EF5FEF6FEF7FE004C048EF5FEFA4
:1008B00060E070E084179507A607B70730F0C8011D
:1008C0000E949700811106C06BCFF8018683978341
:1008D000A087B187D8015B96ED91FC915C97169645
:1008E0008D909D90AD90BC901997B2E08B1A9108B5
:1008F000A108B108058404C0880C991CAA1CBB1C63
:100900000A94D2F786859785A089B189880E991EA9
:10091000AA1EBB1E870C911CA11CB11CE114F10482
:1009200009F5F80142855385648575858389948925
:10093000A589B689481759076A077B0798F00E946E
:10094000E502882309F42CCF8092000190920101E6
:10095000A0920201B09203018091390281608093DC
:10096000390208C041E0C501B4010E942203882376
:1009700009F416CFF701E25CFD4F8D818083F80109
:1009800082859385A485B5850196A11DB11D8287B9
:100990009387A487B58743895489658976894817E1
:1009A00059076A077B0738F4838B948BA58BB68B2A
:1009B000848180688483D80114968C9183FD03C060
:1009C00081E090E044C0F8019581992309F4E8CED4
:1009D00087FF38C0668577858089918941E00E94CC
:1009E0002203882309F4DCCED8015296EC91B0E2C0
:1009F000EB9F90011124D901A25CBD4F109709F41F
:100A0000CFCEF8018581823050F4438954896589BD
:100A100076895C964D935D936D937C935F97F80117
:100A20008789908DA18DB28DF901E25CFD4F938F86
:100A3000828FB58BA48BD80114968C9114978F77E5
:100A400014968C930E94E5028111BACFA9CE0F9023
:100A50000F900F900F900F90DF91CF911F910F91FA
:100A6000FF90EF90BF90AF909F908F907F906F908E
:100A70005F904F900895AF92BF92CF92DF92EF9226
:100A8000FF920F931F93CF93DF93CDB7DEB7D25072
:100A90000FB6F894DEBF0FBECDBFE0914E04F091CB
:100AA0004F0482E08083E0914A04F0914B0410826D
:100AB000E0914C04F0914D048FEC80831092560429
:100AC000E0915204F091530486E08083E091500459
:100AD000F0915104808180618083E0915004F09115
:100AE0005104808188608083E0915004F09151042A
:100AF000808180688083E0915004F091510480816E
:100B00008F7D80838CE191E00E943B091092E80484
:100B10001092E6041092E3041092E20484E08093C1
:100B2000E1040E940C0A8B018091E1040E944909B2
:100B300061E08091E1040E94C009FFB6F8948091C1
:100B40003402811124C0EAE9F0E08491EEEAF0E099
:100B50009491E82FF0E0EE0FFF1FEA57FF4FA591A9
:100B6000B491EC91E92321F461E08AE00E94C0098C
:100B70008AE00E9449098CB580618CBD8CB5806487
:100B80008CBD8DE00E9449098BE00E94490980914B
:100B900034028F5F80933402FFBE82E58093DB04D2
:100BA0001092DC048091DB049091DC040E9494009C
:100BB000EAE0FE2E8FEF0E948D00FA94F110FACF3A
:100BC0008DED94E00E949A0120E030E0A90160E000
:100BD0008DED94E00E941802F82E8093E70481E0E6
:100BE000F81649F00E940C0A601B710B613D7740BA
:100BF00058F381E057C02AEA31E040E050E068E075
:100C00008DED94E00E94180282FF03C0F092E80488
:100C100010C074E0F72E0E94BB018093E704FA94A1
:100C2000F110F9CF8A3A11F082E03CC082E0809363
:100C3000E8048091E804823021F0C12CD12C7601A7
:100C400005C0C12CD12CE12C60E4F62E20E030E070
:100C5000A90167E38DED94E00E941802A7019601B7
:100C600069E28DED94E00E9418028093E7048823E6
:100C700049F00E940C0A601B710B613D774030F314
:100C800088E010C08091E804823009F040C020E084
:100C900030E0A9016AE38DED94E00E9418028823F8
:100CA00041F186E08093E2048DED94E00E94B00172
:100CB0008BE691E00E943B0983E991E00E943B09A9
:100CC00089EA91E00E943B0983EC91E00E943B0994
:100CD000DE5F0FB6F894DEBF0FBECDBFDF91CF91C0
:100CE0001F910F91FF90EF90DF90CF90BF90AF904A
:100CF00008950E94BB01807C803C19F483E08093BE
:100D0000E8040E94BB010E94BB010E94BB018DED63
:100D100094E00E94B00180E58093DB041092DC0433
:100D200085E391E00E943B098EE591E00E948708EF
:100D30008091E804823039F0833041F0813049F409
:100D400087E092E008C08BE092E005C08FE092E07F
:100D500002C084E192E00E943B098CE192E00E9493
:100D6000870820E030E0A90169E08DED94E00E9461
:100D70001802882321F08EE08093E20453C08DEDA9
:100D800094E00E94BE01882309F44CC08E010F5FDD
:100D90001F4F7E01F1E1EF0EF11C0E94BB01F80133
:100DA00081938F01EE15FF05C1F70E94BB010E94E0
:100DB000BB018DED94E00E94B0018981807CB9F582
:100DC0006F81637070E0762F6627770F770F8885C5
:100DD000F4E08F9FC0011124682B792B89858295BF
:100DE000869586958370682B6F5F7F4FCB01A0E05F
:100DF000B0E04A854370440F2B8527FB222720F95A
:100E0000422B2E812F7030E0240F311D27503109E5
:100E1000BC01CD0104C0660F771F881F991F2A955A
:100E2000D2F734C08DED94E00E94B0012CC0803424
:100E300039F5688566956695862F90E0A0E0B0E06C
:100E4000DC01992788272A85AC01BD01422B8985C1
:100E500090E0982F8827092E000CAA0BBB0B842B3F
:100E6000952BA62BB72B0196A11DB11DBC01CD0161
:100E70004AE0660F771F881F991F4A95D1F706C071
:100E800089E08093E20460E070E0CB014AE00E94D8
:100E9000990888E292E00E9487085E012FEFA21A6B
:100EA0002DEFB20AFE0131961192EA15FB05E1F72A
:100EB000C12CD12C76019E012F5F3F4FB701A601B7
:100EC0008DED94E00E94DA088BE292E00E948708A0
:100ED0004AE0C701B6010E94990888E292E00E94A8
:100EE00087088FEFC81AD80AE80AF80A8E010F5F40
:100EF0001F4FF80161918F0170E080E090E040E1C8
:100F00000E94990889E691E00E9487080A151B054E
:100F100081F788E292E00E948708CDCFCF92DF92DE
:100F2000EF92FF920F931F93CF93DF936C017A019F
:100F30008B01C0E0D0E0CE15DF0589F0D8016D91BE
:100F40008D01D601ED91FC910190F081E02DC6015B
:100F50000995892B11F47E0102C02196ECCFC701BF
:100F6000DF91CF911F910F91FF90EF90DF90CF9085
:100F70000895FC01918D828D981761F0828DDF01BB
:100F8000A80FB11D5D968C91928D9F5F9F73928F7C
:100F900090E008958FEF9FEF0895FC01918D828D71
:100FA000981731F0828DE80FF11D858D90E008953E
:100FB0008FEF9FEF0895FC01918D228D892F90E096
:100FC000805C9F4F821B91098F73992708958EE350
:100FD00094E00E94DB0721E0892B09F420E0822FB6
:100FE0000895FC01848DDF01A80FB11DA35ABF4FE6
:100FF0002C91848D90E001968F739927848FA68918
:10100000B7892C93A089B1898C9180648C93938D3E
:10101000848D981306C00288F389E02D80818F7D2E
:1010200080830895EF92FF920F931F93CF93DF93E6
:10103000EC0181E0888F9B8D8C8D981305C0E88929
:10104000F989808185FD24C0F62E0B8D10E00F5F9D
:101050001F4F0F731127E02E8C8DE8120CC00FB6B6
:1010600007FCFACFE889F989808185FFF5CFCE01A9
:101070000E94F107F1CF8B8DFE01E80FF11DE35ABD
:10108000FF4FF0820B8FEA89FB898081806207C065
:10109000EE89FF896083E889F98980818064808393
:1010A00081E090E0DF91CF911F910F91FF90EF9041
:1010B0000895CF93DF93EC01888D8823C9F0EA89E6
:1010C000FB89808185FD05C0A889B9898C9186FD41
:1010D0000FC00FB607FCF5CF808185FFF2CFA8893E
:1010E000B9898C9185FFEDCFCE010E94F107E7CF42
:1010F000DF91CF91089580E090E0892B29F00E9444
:10110000E70781110C94000008950E94520C00978B
:1011100069F0FC0101900020E9F73197AF01481B0D
:10112000590BBC018EE394E00C948E0780E090E0B4
:1011300008958F929F92AF92BF920F931F93CF9378
:10114000DF93CDB7DEB7A1970FB6F894DEBF0FBE21
:10115000CDBF19A2423008F44AE08E010F5D1F4F47
:10116000842E912CA12CB12CA50194010E942A0C53
:10117000E62FB901CA0101501109EA3014F4E05D0B
:1011800001C0E95CD801EC93232B242B252B61F7BC
:10119000C8010E948708A1960FB6F894DEBF0FBE63
:1011A000CDBFDF91CF911F910F91BF90AF909F90D6
:1011B0008F900895EF92FF920F931F93CF93DF9339
:1011C000EC0179018E81882369F088819981AA8157
:1011D000BB81481759076A077B0721F48F819885DF
:1011E000892B11F1488359836A837B838B858330F4
:1011F00039F089E0440F551F661F771F8A95D1F794
:101200009A01AB0161E1CE010E941802882319F016
:1012100083E08D8323C0CE010E94BE018823F1F0BC
:1012200018861F8281E08E8387012EEFF21A0E94BA
:10123000BB01F80181938F01EE15FF05C1F78F8186
:1012400098859E5F98878F832985222319F08115C1
:10125000924048F0CE010E94FE0105C0CE010E94DE
:10126000B00180E001C081E0DF91CF911F910F912B
:10127000FF90EF900895CF93DF930E948708EC01D1
:1012800088E292E00E9487088C0F9D1FDF91CF912A
:10129000089590E0FC01EC55FF4F2491FC01E057CC
:1012A000FF4F8491882399F090E0880F991FFC01EB
:1012B000EA57FF4FA591B491FC01E458FF4F859187
:1012C00094918FB7F894EC91E22BEC938FBF089533
:1012D0001F920F920FB60F9211242F933F934F93AB
:1012E0005F936F937F938F939F93AF93BF93EF938E
:1012F000FF938EE394E00E94F107FF91EF91BF917D
:10130000AF919F918F917F916F915F914F913F919D
:101310002F910F900FBE0F901F9018951F920F9254
:101320000FB60F9211242F938F939F93EF93FF93F8
:10133000E0914E04F0914F048081E0915404F091CB
:10134000550482FD12C09081809157048F5F8F7386
:1013500020915804821751F0E0915704F0E0E25CCC
:10136000FB4F958F8093570401C08081FF91EF91CF
:101370009F918F912F910F900FBE0F901F901895F6
:1013800090E0FC01E859FF4F3491FC01EC55FF4F10
:101390002491FC01E057FF4FE491EE2309F43BC098
:1013A000332339F1333091F038F43130A9F0323051
:1013B00001F584B58F7D12C0373091F03830A1F03F
:1013C0003430B9F4809180008F7D03C0809180001B
:1013D0008F77809380000DC084B58F7784BD09C05E
:1013E0008091B0008F7703C08091B0008F7D809393
:1013F000B000F0E0EE0FFF1FE458FF4FA591B4914D
:101400008FB7F894EC91611103C020952E2301C091
:101410002E2B2C938FBF08952FB7F8946091EE0474
:101420007091EF048091F0049091F1042FBF089522
:101430001F920F920FB60F9211242F933F938F9309
:101440009F93AF93BF938091EE049091EF04A0918E
:10145000F004B091F1043091ED0423E0230F2D3717
:1014600020F40196A11DB11D05C026E8230F0296A8
:10147000A11DB11D2093ED048093EE049093EF0421
:10148000A093F004B093F1048091E9049091EA04F0
:10149000A091EB04B091EC040196A11DB11D8093C5
:1014A000E9049093EA04A093EB04B093EC04BF9199
:1014B000AF919F918F913F912F910F900FBE0F9001
:1014C0001F9018954F925F926F927F928F929F928A
:1014D000AF92BF92CF92DF92EF92FF920F931F9342
:1014E000CF93DF93EC016A017B012801390142307F
:1014F00051056105710510F480E073C089859A85F6
:10150000AB85BC850196A11DB11D84179507A60763
:10151000B70790F38B889C88AD88BE888F8980310F
:1015200029F4BB27AF2D9E2D8D2D09C0DB01CA01EB
:1015300047E0B695A795979587954A95D1F7880E78
:10154000991EAA1EBB1E8091000190910101A091DD
:101550000201B091030188169906AA06BB0679F428
:101560008F898031A1F4DD24EE24FF24C601880F89
:10157000991FFC01E25CFD4F5182408219C040E09E
:10158000C501B4010E9422038111EACFB5CFE894CE
:10159000C7F8DD24EE24FF24C601880F991F880FA9
:1015A000991FFC01E25CFD4F40825182628273828E
:1015B000809139028160809339028A89823080F07B
:1015C0008D819E81AF81B885880E991EAA1EBB1E93
:1015D00080923A0290923B02A0923C02B0923D026D
:1015E00081E0DF91CF911F910F91FF90EF90DF90FD
:1015F000CF90BF90AF909F908F907F906F905F90B3
:101600004F9008958F929F92AF92BF92CF92DF92A8
:10161000EF92FF920F931F93CF93DF93FC0181858D
:101620009285A385B4850196A11DB11D84179507E8
:10163000A607B70710F480E05CC083899489A58968
:10164000B689C789C03129F4852E962EA72EBB24D2
:1016500009C04A015B01C7E0B694A79497948794A8
:10166000CA95D1F7E9016A017B018F01BC01CD0167
:10167000680D791D8A1D9B1D8090000190900101CD
:10168000A0900201B0900301681579058A059B05B9
:1016900099F4F80187898031A9F4B701A60155278B
:1016A00066277727440F551FFA01E25CFD4F8081C2
:1016B0009181A0E0B0E018C040E00E9422038111B7
:1016C000E8CFB9CFB701A6014F775527662777270F
:1016D000440F551F440F551FFA01E25CFD4F8081F6
:1016E0009181A281B381BF7088839983AA83BB83D0
:1016F00081E0DF91CF911F910F91FF90EF90DF90EC
:10170000CF90BF90AF909F908F900895EEE3F4E05C
:101710001382128288EE93E0A0E0B0E08483958388
:10172000A683B78388E091E09183808385EC90E085
:101730009587848784EC90E09787868780EC90E09B
:10174000918B808B81EC90E0938B828B82EC90E08C
:10175000958B848B86EC90E0978B868B118E128E06
:10176000138E148EEBEDF4E080E580831182E2EFBE
:10177000F4E0158216821186138642E050E060E0A4
:1017800070E0448755876687778713A215A614A64D
:1017900088E191E093A782A717A6EDEDF4E015820A
:1017A000168211861386E8E5F5E040835183628353
:1017B0007383178AEBE3F5E01382128291838083AF
:1017C00015820895789484B5826084BD84B5816063
:1017D00084BD85B5826085BD85B5816085BD8091FC
:1017E0006E00816080936E00109281008091810074
:1017F000826080938100809181008160809381006C
:10180000809180008160809380008091B10084602D
:101810008093B1008091B00081608093B00080918E
:101820007A00846080937A0080917A00826080934D
:101830007A0080917A00816080937A0080917A00AA
:10184000806880937A001092C1000E943B050E943C
:101850007B08FDCFA1E21A2EAA1BBB1BFD010DC008
:10186000AA1FBB1FEE1FFF1FA217B307E407F50750
:1018700020F0A21BB30BE40BF50B661F771F881F2C
:10188000991F1A9469F760957095809590959B01C2
:10189000AC01BD01CF010895EE0FFF1F0590F4913B
:1018A000E02D099481E090E0F8940C94570CF894A2
:0218B000FFCF68
:1018B200FFFFFFFF0000000012088E07DB07B907D9
:1018C200CD075908000000005D038E070A496E69C2
:1018D2007469616C697A696E67205344206361722E
:1018E200642E2E2E00576972696E67206973206319
:1018F2006F727265637420616E642061206361722D
:10190200642069732070726573656E742E000A43D9
:1019120061726420747970653A2000696E69746935
:10192200616C697A6174696F6E206661696C656465
:101932002E205468696E677320746F206368656334
:101942006B3A002A20697320612063617264206906
:101952006E7365727465643F002A20697320796F23
:10196200757220776972696E6720636F7272656340
:10197200743F002A2064696420796F75206368616E
:101982006E676520746865206368697053656C656D
:1019920063742070696E20746F206D6174636820B7
:1019A200796F757220736869656C64206F72206D3F
:1019B2006F64756C653F00534431005344320053E9
:1019C20044484300556E6B6E6F776E0043617264DC
:1019D2002073697A653A20000D0A00426C6F636BCE
:0419E2003A200000A7
:00000001FF
